{
  "_format": "hh-sol-artifact-1",
  "contractName": "TodoList",
  "sourceName": "contracts/crud.sol",
  "abi": [
    {
      "anonymous": false,
      "inputs": [
        {
          "indexed": true,
          "internalType": "address",
          "name": "user",
          "type": "address"
        },
        {
          "indexed": false,
          "internalType": "uint256",
          "name": "id",
          "type": "uint256"
        }
      ],
      "name": "TaskCompleted",
      "type": "event"
    },
    {
      "anonymous": false,
      "inputs": [
        {
          "indexed": true,
          "internalType": "address",
          "name": "user",
          "type": "address"
        },
        {
          "indexed": false,
          "internalType": "uint256",
          "name": "id",
          "type": "uint256"
        },
        {
          "indexed": false,
          "internalType": "string",
          "name": "content",
          "type": "string"
        },
        {
          "indexed": false,
          "internalType": "uint256",
          "name": "timestamp",
          "type": "uint256"
        }
      ],
      "name": "TaskCreated",
      "type": "event"
    },
    {
      "anonymous": false,
      "inputs": [
        {
          "indexed": true,
          "internalType": "address",
          "name": "user",
          "type": "address"
        },
        {
          "indexed": false,
          "internalType": "uint256",
          "name": "id",
          "type": "uint256"
        }
      ],
      "name": "TaskDeleted",
      "type": "event"
    },
    {
      "inputs": [
        {
          "internalType": "string",
          "name": "_content",
          "type": "string"
        }
      ],
      "name": "createTask",
      "outputs": [],
      "stateMutability": "nonpayable",
      "type": "function"
    },
    {
      "inputs": [
        {
          "internalType": "uint256",
          "name": "_id",
          "type": "uint256"
        }
      ],
      "name": "deleteTask",
      "outputs": [],
      "stateMutability": "nonpayable",
      "type": "function"
    },
    {
      "inputs": [],
      "name": "getTaskCount",
      "outputs": [
        {
          "internalType": "uint256",
          "name": "",
          "type": "uint256"
        }
      ],
      "stateMutability": "view",
      "type": "function"
    },
    {
      "inputs": [],
      "name": "getTasks",
      "outputs": [
        {
          "components": [
            {
              "internalType": "uint256",
              "name": "id",
              "type": "uint256"
            },
            {
              "internalType": "string",
              "name": "content",
              "type": "string"
            },
            {
              "internalType": "bool",
              "name": "completed",
              "type": "bool"
            },
            {
              "internalType": "uint256",
              "name": "timestamp",
              "type": "uint256"
            }
          ],
          "internalType": "struct TodoList.Task[]",
          "name": "",
          "type": "tuple[]"
        }
      ],
      "stateMutability": "view",
      "type": "function"
    },
    {
      "inputs": [
        {
          "internalType": "uint256",
          "name": "_id",
          "type": "uint256"
        }
      ],
      "name": "toggleTask",
      "outputs": [],
      "stateMutability": "nonpayable",
      "type": "function"
    }
  ],
  "bytecode": "0x608060405234801561001057600080fd5b50610acb806100206000396000f3fe608060405234801561001057600080fd5b50600436106100575760003560e01c806304a87e381461005c578063111002aa1461007a578063560f31921461008f578063613137a4146100a2578063c17a340e146100b5575b600080fd5b6100646100d3565b6040516100719190610650565b60405180910390f35b61008d6100883660046106f3565b6101f6565b005b61008d61009d3660046107a4565b6102e6565b61008d6100b03660046107a4565b6104af565b33600090815260016020526040902054604051908152602001610071565b33600090815260208181526040808320805482518185028101850190935280835260609492939192909184015b828210156101ed57838290600052602060002090600402016040518060800160405290816000820154815260200160018201805461013d906107bd565b80601f0160208091040260200160405190810160405280929190818152602001828054610169906107bd565b80156101b65780601f1061018b576101008083540402835291602001916101b6565b820191906000526020600020905b81548152906001019060200180831161019957829003601f168201915b5050509183525050600282015460ff1615156020808301919091526003909201546040909101529082526001929092019101610100565b50505050905090565b336000908152600160208181526040808420548483528185208251608081018452828152808501888152938101879052426060820152815480870183559187529390952083516004909602019485559051909391928201906102589082610846565b5060408281015160028301805460ff191691151591909117905560609092015160039091015533600090815260016020529081208054916102988361091c565b9190505550336001600160a01b03167f82e72578742f8dcfee5f2dbc5864ee537b7be2dae9a49e67a0b76fe2f0bfca2e8284426040516102da93929190610935565b60405180910390a25050565b33600090815260016020526040902054811061033f5760405162461bcd60e51b815260206004820152601360248201527215185cdac8191bd95cc81b9bdd08195e1a5cdd606a1b60448201526064015b60405180910390fd5b336000908152602081905260409020805461035c9060019061095e565b8154811061036c5761036c610977565b9060005260206000209060040201600080336001600160a01b03166001600160a01b0316815260200190815260200160002082815481106103af576103af610977565b6000918252602090912082546004909202019081556001808201906103d69084018261098d565b50600282810154908201805460ff191660ff909216151591909117905560039182015491015533600090815260208190526040902080548061041a5761041a610a68565b6000828152602081206004600019909301928302018181559061044060018301826105b4565b5060028101805460ff1916905560006003909101819055915533815260016020526040812080549161047183610a7e565b909155505060405181815233907fd1bc87501afcaa22b7f6481dac99ed45fbe02321873ca9b55c1f41b9d78b8fb3906020015b60405180910390a250565b3360009081526001602052604090205481106105035760405162461bcd60e51b815260206004820152601360248201527215185cdac8191bd95cc81b9bdd08195e1a5cdd606a1b6044820152606401610336565b33600090815260208190526040902080548290811061052457610524610977565b6000918252602080832060026004909302019190910154338352908290526040909120805460ff90921615918390811061056057610560610977565b6000918252602091829020600490910201600201805460ff19169215159290921790915560405182815233917ff684d89bb0f42287bf32838774e4b7f8a60c11804b3c6d1791fa55f30679264391016104a4565b5080546105c0906107bd565b6000825580601f106105d0575050565b601f0160209004906000526020600020908101906105ee91906105f1565b50565b5b8082111561060657600081556001016105f2565b5090565b6000815180845260005b8181101561063057602081850181015186830182015201610614565b506000602082860101526020601f19601f83011685010191505092915050565b60006020808301818452808551808352604092508286019150828160051b87010184880160005b838110156106cf57603f19898403018552815160808151855288820151818a8701526106a58287018261060a565b838a01511515878b0152606093840151939096019290925250509386019390860190600101610677565b509098975050505050505050565b634e487b7160e01b600052604160045260246000fd5b60006020828403121561070557600080fd5b813567ffffffffffffffff8082111561071d57600080fd5b818401915084601f83011261073157600080fd5b813581811115610743576107436106dd565b604051601f8201601f19908116603f0116810190838211818310171561076b5761076b6106dd565b8160405282815287602084870101111561078457600080fd5b826020860160208301376000928101602001929092525095945050505050565b6000602082840312156107b657600080fd5b5035919050565b600181811c908216806107d157607f821691505b6020821081036107f157634e487b7160e01b600052602260045260246000fd5b50919050565b601f82111561084157600081815260208120601f850160051c8101602086101561081e5750805b601f850160051c820191505b8181101561083d5782815560010161082a565b5050505b505050565b815167ffffffffffffffff811115610860576108606106dd565b6108748161086e84546107bd565b846107f7565b602080601f8311600181146108a957600084156108915750858301515b600019600386901b1c1916600185901b17855561083d565b600085815260208120601f198616915b828110156108d8578886015182559484019460019091019084016108b9565b50858210156108f65787850151600019600388901b60f8161c191681555b5050505050600190811b01905550565b634e487b7160e01b600052601160045260246000fd5b60006001820161092e5761092e610906565b5060010190565b83815260606020820152600061094e606083018561060a565b9050826040830152949350505050565b8181038181111561097157610971610906565b92915050565b634e487b7160e01b600052603260045260246000fd5b818103610998575050565b6109a282546107bd565b67ffffffffffffffff8111156109ba576109ba6106dd565b6109c88161086e84546107bd565b6000601f8211600181146109fc57600083156109e45750848201545b600019600385901b1c1916600184901b178455610a61565b600085815260209020601f19841690600086815260209020845b83811015610a365782860154825560019586019590910190602001610a16565b5085831015610a545781850154600019600388901b60f8161c191681555b50505060018360011b0184555b5050505050565b634e487b7160e01b600052603160045260246000fd5b600081610a8d57610a8d610906565b50600019019056fea26469706673582212202cb02cacf89ed8d32f71798aa71271e8755336f0d66c234f08c68ce1b2868df364736f6c63430008130033",
  "linkReferences": {},
  "deployedLinkReferences": {}
}